{
  "contractName": "Notary",
  "abi": [
    {
      "constant": true,
      "inputs": [
        {
          "name": "",
          "type": "bytes32"
        }
      ],
      "name": "_data",
      "outputs": [
        {
          "name": "",
          "type": "uint256"
        }
      ],
      "payable": false,
      "stateMutability": "view",
      "type": "function"
    },
    {
      "anonymous": false,
      "inputs": [
        {
          "indexed": true,
          "name": "hash",
          "type": "bytes32"
        },
        {
          "indexed": true,
          "name": "timestamp",
          "type": "uint256"
        }
      ],
      "name": "DidAddTimestamp",
      "type": "event"
    },
    {
      "constant": false,
      "inputs": [
        {
          "name": "hash",
          "type": "bytes32"
        },
        {
          "name": "timestamp",
          "type": "uint256"
        }
      ],
      "name": "addTimestamp",
      "outputs": [],
      "payable": false,
      "stateMutability": "nonpayable",
      "type": "function"
    }
  ],
  "bytecode": "0x608060405234801561001057600080fd5b5061010b806100206000396000f30060806040526004361060485763ffffffff7c01000000000000000000000000000000000000000000000000000000006000350416638b1f2e198114604d578063ea260da5146074575b600080fd5b348015605857600080fd5b506062600435608e565b60408051918252519081900360200190f35b348015607f57600080fd5b50608c60043560243560a0565b005b60006020819052908152604090205481565b60008281526020819052604080822083905551829184917fdec66346f027cfd7b1fd9c2d3d8e12e45a08311735a452d74a55e96bb876cdef9190a350505600a165627a7a72305820d35a58532c38686ed4e9100d9c48fb7673dd160073a898433cb5aea4524f9f780029",
  "source": "pragma solidity ^0.4.25;\n\n\ncontract Notary {\n    mapping (bytes32 => uint256) public _data;\n\n    event DidAddTimestamp (bytes32 indexed hash, uint256 indexed timestamp);\n\n    function addTimestamp (bytes32 hash, uint256 timestamp) {\n        _data[hash] = timestamp;\n        emit DidAddTimestamp(hash, timestamp);\n    }\n}\n",
  "sourcePath": "/home/zx100/dev/master/REIDS/reids-ui/packages/contracts/contracts/Notary.sol",
  "compiler": {
    "name": "solc",
    "version": "0.4.25+commit.59dbf8f1.Emscripten.clang"
  },
  "schemaVersion": "2.0.2",
  "updatedAt": "2019-10-15T19:48:07.218Z"
}